31000607317KISHOR DATTATRAY BOBADE       230720150000100003                                                                                                                                                                                                                                                                                                             
34NCBL00000000001000739533601267000607317Y24052015 N23072015                                                                                                                                                                                                                                                                                                            
34NCBL00000000002000697767578709000607317Y22072015 N23072015                                                                                                                                                                                                                                                                                                            
34NCBL00000000003000259550551545000607317Y23072015 N23072015                                                                                                                                                                                                                                                                                                            
