31000607317KISHOR DATTATRAY BOBADE       230320150000100032                                                                                                                                                                                                                                                                                                             
34NCBL00000000001000508875428026000607317Y10032015 N23032015                                                                                                                                                                                                                                                                                                            
34NCBL00000000002000232371813590000607317Y10032015 N23032015                                                                                                                                                                                                                                                                                                            
34NCBL00000000003000386650487254000607317Y10032015 N23032015                                                                                                                                                                                                                                                                                                            
34NCBL00000000004000530694542274000607317Y10032015 N23032015                                                                                                                                                                                                                                                                                                            
34NCBL00000000005000235936007465000607317Y10032015 N23032015                                                                                                                                                                                                                                                                                                            
34NCBL00000000006000752868673386000607317Y10032015 N23032015                                                                                                                                                                                                                                                                                                            
34NCBL00000000007000882053334373000607317Y11032015 N23032015                                                                                                                                                                                                                                                                                                            
34NCBL00000000008000598488700809000607317Y11032015 N23032015                                                                                                                                                                                                                                                                                                            
34NCBL00000000009000833248854974000607317Y11032015 N23032015                                                                                                                                                                                                                                                                                                            
34NCBL00000000010000699936378061000607317Y12032015 N23032015                                                                                                                                                                                                                                                                                                            
34NCBL00000000011000910430600214000607317Y13032015 N23032015                                                                                                                                                                                                                                                                                                            
34NCBL00000000012000000525240938000607317Y13032015 N23032015                                                                                                                                                                                                                                                                                                            
34NCBL00000000013000796551241749000607317Y13032015 N23032015                                                                                                                                                                                                                                                                                                            
34NCBL00000000014000847796278452000607317Y14032015 N23032015                                                                                                                                                                                                                                                                                                            
34NCBL00000000015000929174668160000607317Y14032015 N23032015                                                                                                                                                                                                                                                                                                            
34NCBL00000000016000477273447153000607317Y14032015 N23032015                                                                                                                                                                                                                                                                                                            
34NCBL00000000017000957103676046000607317Y14032015 N23032015                                                                                                                                                                                                                                                                                                            
34NCBL00000000018000435086699915000607317Y14032015 N23032015                                                                                                                                                                                                                                                                                                            
34NCBL00000000019000296364975477000607317Y15032015 N23032015                                                                                                                                                                                                                                                                                                            
34NCBL00000000020000643654618729000607317Y15032015 N23032015                                                                                                                                                                                                                                                                                                            
34NCBL00000000021000823155919495000607317Y16032015 N23032015                                                                                                                                                                                                                                                                                                            
34NCBL00000000022000415267872846000607317Y17032015 N23032015                                                                                                                                                                                                                                                                                                            
34NCBL00000000023000534434320850000607317Y18032015 N23032015                                                                                                                                                                                                                                                                                                            
34NCBL00000000024000837006917806000607317Y18032015 N23032015                                                                                                                                                                                                                                                                                                            
34NCBL00000000025000905214861838000607317Y18032015 N23032015                                                                                                                                                                                                                                                                                                            
34NCBL00000000026000995126694441000607317Y18032015 N23032015                                                                                                                                                                                                                                                                                                            
34NCBL00000000027000721441105660000607317Y18032015 N23032015                                                                                                                                                                                                                                                                                                            
34NCBL00000000028000820877277872000607317Y18032015 N23032015                                                                                                                                                                                                                                                                                                            
34NCBL00000000029000992606837676000607317Y18032015 N23032015                                                                                                                                                                                                                                                                                                            
34NCBL00000000030000450464918147000607317Y20032015 N23032015                                                                                                                                                                                                                                                                                                            
34NCBL00000000031000724705873494000607317Y20032015 N23032015                                                                                                                                                                                                                                                                                                            
34NCBL00000000032000809525129550000607317Y20032015 N23032015                                                                                                                                                                                                                                                                                                            
